:020000040800F2
:10000000C00800202D020008F55A0008B7140008A7
:10001000F15A0008550C0008076A000800000000AB
:100020000000000000000000000000002562000841
:100030000110000800000000895B000855630008FB
:10004000470200084702000847020008795F0008DD
:10005000470200084702000847020008470200085C
:10006000470200084702000847020008470200084C
:10007000470200084702000847020008470200083C
:10008000470200084702000847020008470200082C
:10009000470200084702000847020008470200081C
:1000A000470200084702000847020008470200080C
:1000B0003D640008BD64000845650008470200086B
:1000C00047020008470200084702000847020008EC
:1000D00047020008E56700084702000847020008D9
:1000E00047020008470200084702000847020008CC
:1000F00047020008470200084702000847020008BC
:1001000047020008470200084702000847020008AB
:10011000470200084702000847020008470200089B
:10012000470200084702000847020008470200088B
:1001300000F002F800F06BF80AA090E8000C82448E
:100140008344AAF10107DA4501D100F060F8AFF26B
:10015000090EBAE80F0013F0010F18BFFB1A43F0A5
:100160000103184700A2000020A200000A444FF03B
:10017000000C10F8013B13F0070408BF10F8014B06
:100180001D1108BF10F8015B641E05D010F8016B4B
:10019000641E01F8016BF9D113F0080F1EBF10F8AF
:1001A000014BAD1C0C1B09D16D1E58BF01F801CBD2
:1001B000FAD505E014F8016B01F8016B6D1EF9D555
:1001C0009142D6D37047000000230024002500266A
:1001D000103A28BF78C1FBD8520728BF30C148BFAA
:1001E0000B607047642900F09F80752900F09C80A7
:1001F000782900F0D580632900F06682732900F029
:100200006B82002070471FB51FBD10B510BD00F0F8
:100210007DFA1146FFF7F7FF06F028FD00F09BFA84
:1002200003B4FFF7F2FF03BC06F0F6FB0948804772
:1002300009480047FEE7FEE7FEE7FEE7FEE7FEE7C8
:10024000FEE7FEE7FEE7FEE704480549054A064BE0
:10025000704700005963000831010008C002002007
:10026000C0080020C0040020C00400207047000027
:100270000FB4044910B503AA029800F031FA10BC7B
:100280005DF814FB2000002070B504468569006805
:10029000C10601D5302600E02026C00707D070BD7A
:1002A000D4E9012130469047206A401C20626D1E2F
:1002B000F6D570BD70B5044685690078C00707D1D2
:1002C00070BDD4E9012120209047206A401C2062A3
:1002D0006D1EF6D570BD70B50C460546012A05D0D9
:1002E0002878800600D5EA69002302E0012305E0B2
:1002F0005B1C934202D2E05C0028F9D1A869E618A1
:10030000C01AA861286A184428622846FFF7BCFF73
:1003100004E0D5E9012114F8010B9047B442F8D369
:100320002846FFF7C7FF70BD2DE9F04106460024BF
:1003300010687529314616A510D0AFF3008000284B
:1003400002DA404213A507E031688A0701D512A5F9
:1003500002E0490704D511A5012401E0AFF30080B4
:1003600000210A2206F1240709E0B0FBF2FCB0FBF1
:10037000F2F302FB1C00303078541846491C002868
:10038000F3D123462A463046BDE8F04100F020B9BB
:10039000000000002D0000002B00000020000000E5
:1003A00070B504460D4621461068AFF300802188E1
:1003B000090502D50F4A7A4402E00E4A7A440E3209
:1003C000002104F1240305E000F00F060009965D0A
:1003D0005E54491C0028F7D120780023000704D57B
:1003E000702D02D009B1022311322046BDE87040C1
:1003F00000F0EEB89E9E00002DE9F05F89460446AD
:100400004FF0000ADFF874B1FB44C0F820A020468A
:10041000E1688847002874D0252806D0D4E9012156
:100420009047206A401C2062F1E700265F46204684
:10043000E16888472028054607DB312D05D2781969
:1004400010F8200C08B10643F1E7B00701D526F0FB
:100450000406C4F81CA00027C4F818A02A2D09D04F
:10046000284606F0D2FA38B304EB8708303DC8F8C6
:10047000185019E059F8041B204604EB87029161DB
:10048000E1688847012F054618D1E069002820DA85
:1004900026F020061DE0D8F8180000EB800005EBE0
:1004A00040003038C8F818002046E1688847054603
:1004B00006F0ABFA0028EED1012F0AD02E2D08D17C
:1004C0002046E16888477F1C0546022F46F020063B
:1004D000C4DBA069002803DA404246F00106A061AF
:1004E000F00701D026F010066C2D0BD0682D09D036
:1004F0004C2D39D06A2D35D0742D35D07A2D33D08E
:1005000016E038E0E1682F4620468847B8420546A5
:1005100009D16C2F26D04FF48060E1680643204655
:100520008847054604E06C2F1AD04FF480700643CC
:100530000DB3A5F14100192802D8203546F4006614
:100540004A462946204626604E46FFF74BFE80B1BC
:1005500001280BD0F61D26F0070000F1080956E728
:100560004020E4E78020D8E70020D6E706F1040920
:100570004DE7284652E7206ABDE8F09F749E0000D0
:1005800040EA0103024630B59B0710D14FF0013419
:1005900000E008C208C91D1B9D4315EAC41FF8D01E
:1005A00013F0FF0102F8011B0DD01B0AF8E711F848
:1005B000013B002B02F8013B05D011F8013B002B59
:1005C00002F8013BF3D130BD704770477047704768
:1005D0002DE9F0470D4699469246044600F124085D
:1005E0000168880604D5E06921F01001216000E06F
:1005F0000120A84201DD471B00E00027A1697A190C
:1006000002EB0900081AA0612078C00602D4204637
:10061000FFF73AFE002608E0D4E901211AF80600A7
:100620009047206A401C761C20624E45F4DB2078FF
:10063000C0060AD52046FFF727FE06E0D4E90121CF
:1006400030209047206A401C2062381EA7F1010725
:10065000F4DC07E0D4E9012118F805009047206A8E
:10066000401C2062281EA5F10105F3DC2046FFF79F
:1006700021FE2078000602D50220BDE8F087012087
:10068000FBE7000001694A1C02610878704700B569
:100690008FB0CDE901310021059105497944CDE9BB
:1006A000031011466846FFF7A7FE0FB000BD00001B
:1006B000E5FFFFFF10B5436913B1AFF3008001E020
:1006C000FFF709FE012010BD127800F124010A7025
:1006D00000224A700122EDE711684FF0FF32E9E78E
:1006E000074B70B50D467B44FFF7D1FF0446284603
:1006F00000F008F810B14FF0FF3070BD204670BD1B
:100700000F640000007B00F080007047754600F029
:100710002BF8AE4605006946534620F00700854693
:1007200018B020B5FFF790FDBDE820404FF000065F
:100730004FF000074FF000084FF0000B21F00701C9
:10074000AC46ACE8C009ACE8C009ACE8C009ACE80C
:10075000C0098D46704710B50446AFF300802046AF
:10076000BDE81040FFF75CBD004870476002002004
:1007700021B1826842F00102826003E0826822F0C7
:10078000010282607047000010B50446124884429E
:1007900008D10121401505F035FA0021601505F05A
:1007A00031FA17E00D48844208D10121001505F007
:1007B00029FA0021201505F025FA0BE008488442AB
:1007C00008D10121C80305F01DFA00214FF40040B3
:1007D00005F018FA10BD0000002401400028014077
:1007E000003C0140014600208A6802F004020AB180
:1007F000012000E0002070470146C86C80B27047BD
:100800000246002013680B400BB1012000E00020DD
:100810007047014600208A6802F008020AB10120F0
:1008200000E000207047000030B5024600200023A1
:1008300050680F4C20400D790C6844EA0524204391
:10084000506090680B4C2040D1E902542C434D7904
:1008500044EA450420439060D06A20F470000C7C88
:10086000641EE4B2234340EA0350D06230BD00006E
:10087000FFFEF0FFFDF7F1FFF0B504460D46002046
:100880000021092D11DDE068A5F10A0606EB4607F7
:10089000072606FA07F18843A5F10A0606EB460685
:1008A00003FA06F10843E0600CE0206905EB450718
:1008B000072606FA07F1884305EB450603FA06F119
:1008C00008432061072A0FDA606B561E06EB860785
:1008D0001F2606FA07F18843561E06EB860605FA20
:1008E00006F10843606322E00D2A0FDA206BD61F61
:1008F00006EB86071F2606FA07F18843D61F06EB8C
:10090000860605FA06F10843206310E0E06AA2F1CA
:100910000D0606EB86071F2606FA07F18843A2F1AB
:100920000D0606EB860605FA06F10843E062F0BD07
:10093000816841F008018160704721B1826842F40A
:10094000A002826003E0826822F4A0028260704705
:10095000816841F0040181607047000000B587B0F4
:1009600001214FF4027005F03DF94FF4004005F00D
:100970000DF90120ADF8040000208DF8070001A951
:10098000174800F08AFC1748FFF7FEFE002002908F
:100990008DF80C008DF80D004FF4602004900020BD
:1009A000059001208DF8180002A90E48FFF73CFFC2
:1009B00001210C48FFF7DCFE0A48FFF7B9FF00BF32
:1009C0000848FFF726FF0028FAD10648FFF7C0FFC6
:1009D00000BF0448FFF706FF0028FAD107B000BDAA
:1009E000000C0140002401407CB506F093F8044659
:1009F0004FF6FF7000F0A0FD1F201A4908801AA0D2
:100A000010210B464FF46672CDE9001032211420FC
:100A100004F0FCFF00F0DEFA00F01CFB47214FF46D
:100A20007A7005F0C9FC1BE000F014FB06F072F8C8
:100A30000446102C11D00A21082000F025FD06469E
:100A40004FF47A70704340F6FF7190FBF1F085B27D
:100A50002946114805F041FE02E0102C00D17CBD72
:100A6000E2E700000000002041646A75737420739F
:100A7000706565643A207475726E206B6E6F6220CB
:100A8000746F2061646A7573742073706565642C7B
:100A900031363A6578697400002C01402DE9FC413B
:100AA00005F092F937480478457886784FF6FF705C
:100AB00000F042FD1F203449088034A010210B466D
:100AC0004FF46672CDE900103221142004F09EFF2D
:100AD0003AA010210B464FF4D272CDE90010462106
:100AE000142004F093FF4CE006F014F80746042F9E
:100AF00020D006DC012F0BD0022F0FD0032F36D1D0
:100B000012E0052F1CD0062F20D0102F2FD123E06C
:100B1000601CC4B2182C00DB002428E00CB9172498
:100B200001E0601EC4B222E0681CC5B23C2D00DBAF
:100B300000251CE00DB93B2501E0681EC5B216E09A
:100B4000701CC6B23C2E00DB002610E00EB93B261E
:100B500001E0701EC6B20AE00A4BCDE90056DA7910
:100B600099799888234605F0BFFABDE8FC8100BF5B
:100B7000044804704570867000F06CFA642005F03B
:100B80006FFFB1E78E0100200000002041646A750C
:100B900073742074696D653A20313A686F75722BF1
:100BA0002B2C323A686F75722D2D2C333A6D696E8D
:100BB0002B2B2C343A6D696E2D2D0000353A736560
:100BC000632B2B2C363A7365632D2D2C31363A6509
:100BD0007869740008B50121082005F003F84FF486
:100BE0008070ADF8000010208DF8030003208DF810
:100BF00002006946044800F050FB4FF4807102483F
:100C000000F024FC08BD0000000C014010B50120DC
:100C100005F008F8002005F005F810BD08B50146FC
:100C2000002000900348009000980844009000982D
:100C3000008808BD006C004008B500220092044AFC
:100C40000092009A02440092009A116008BD0000D0
:100C5000006C004000BFFEE72DE9FE4F40F2CF27B9
:100C6000002002902E480478457886782D4890F828
:100C70000080407801902B4890F8029090F803A0F3
:100C800000790090274890F805B044451ED101989E
:100C900085421BD14E4519D10020234908602349C4
:100CA000C1F8BC0100F096F93846029905F084FBC2
:100CB00014211F4805F011FD642005F0D1FE01202C
:100CC000194908601949C1F8BC0127E054451FD1F2
:100CD000009885421CD15E451AD100201249086057
:100CE0001249C1F8BC0100F075F93846029905F0C7
:100CF00063FB4FF47A710E4805F0EFFC642005F0B9
:100D0000AFFE0120084908600849C1F8BC0105E0B0
:100D10000120054908600549C1F8BC01BDE8FE8F06
:100D20008E01002065010020A081214200002142A7
:100D3000002C01402DE9FC4140F2CF25002600F0B7
:100D400049F94FF6FF7000F0F7FB1F204449088077
:100D500044A010210B464FF46672CDE900103221F9
:100D6000142004F053FE4DA010210B464FF4D27214
:100D7000CDE900104621142004F048FE49A01021BE
:100D80000B46B422CDE90010A021142004F03EFE51
:100D900000F060F963E000F05DF905F0BBFE044689
:100DA000002C5CD0012C06D0022C1FD0032C38D094
:100DB000102C53D150E03146284605F0FDFA681C4E
:100DC00000EB80004000642190FBF1F087B23946CF
:100DD000364805F082FC36A010210B46C822CDE92A
:100DE0000010A021462004F011FE37E031462846CD
:100DF00005F0E2FA681C00EB8000C000642190FB63
:100E0000F1F087B23946294805F067FC29A0102186
:100E10000B46C822CDE90010A021462004F0F6FDC3
:100E20001CE03146284605F0C7FA681CC0EB0010EC
:100E30008000642190FBF1F087B239461B4805F031
:100E40004CFC1DA010210B46C822CDE90010A021AA
:100E5000462004F0DBFD01E0BDE8FC8100BF9AE71D
:100E600000000020436F6E74726F6C2073706565B4
:100E7000643A20313A666173742073706565642C3E
:100E8000323A6D6964646C652073706565642C33F7
:100E90003A736C6F772073706565640031363A651C
:100EA0007869740073706565643A0000002C014035
:100EB0003630250034302500313025001CB541F690
:100EC0001F4142F20F7005F00DFB00212B4805F089
:100ED00067FB00202A4908804FF6FF7000F02CFBCA
:100EE0001F202849088028A010210B4640F2262206
:100EF000CDE900103221142004F088FD2EA010212D
:100F00000B464FF4D272CDE900104621142004F0B4
:100F10007DFD31E005F0FEFD0446012C06D0022CDB
:100F20000CD0032C12D0102C20D11AE00121134830
:100F300005F036FB01202649087017E000210F4814
:100F400005F02EFB0220224908700FE000200C491A
:100F500008800121094805F023FB01201C49087085
:100F600004E04FF6FF7000F0E7FA1CBD00BF00F090
:100F700049F8642005F074FDCCE70000000400404F
:100F80006001002000000020436F6E74726F6C20BF
:100F900073746F7077617463683A20313A73746167
:100FA00072742077617463682C323A73746F7020A6
:100FB0007761746368000000333A7265737461721C
:100FC000742077617463682C31363A6578697400EF
:100FD0006401002008B50121082004F003FE4FF44D
:100FE0000040ADF8000018208DF8030003208DF8B4
:100FF00002006946014800F050F908BD000C0140AC
:10100000704700001CB50FA010210B462822CDE927
:10101000001084213C2004F0F9FC102002230090F1
:101020000A48028884216E2004F0A6FC08A0102142
:101030000B460A22CDE900108421822004F0E6FC50
:101040001CBD00004E756D3A0000000060010020DC
:1010500073000000FEB53F4804784578867804F0B8
:10106000B3FE3DA010210B464FF46672CDE900108F
:101070008C21142004F0CAFC39A010210B46C82290
:10108000CDE900108C21462004F0C0FC37480078E0
:10109000012822D11020022322468C2100904620D4
:1010A00004F06AFC102002232A468C2100905E2066
:1010B00004F062FC1020022332468C21009076203E
:1010C00004F05AFC2AA010210B46C822CDE90010DA
:1010D0008C218E2004F09AFC3BE00C2C0ADD26A12A
:1010E00002A8FFF74DFA0C2094FBF0F100FB114031
:1010F000C4B20CE00C2C04D11FA102A8FFF740FAE7
:1011000005E01EA102A8FFF73BFA04B90C24102049
:10111000022322468C210090462004F02DFC102052
:1011200002232A468C2100905E2004F025FC10202A
:10113000022332468C210090762004F01DFC02A888
:1011400010210B46C822CDE900108C218E2004F01E
:101150005DFCFEBD8E01002054696D653A00000003
:1011600020203A20203A2020000000006B010020BF
:101170002020202000000000504D0000414D0000C4
:1011800051B18200A2F1C042126842F00103820014
:10119000A2F1C042136009E08200A2F1C0421268CD
:1011A000034B1A408300A3F1C0431A60704700004C
:1011B000FEFF0F00D0E901121143C268114302691A
:1011C00011434269114382691143C2691143026AA2
:1011D0001143426A1143826A1143C26A1143026B8E
:1011E000114302689200A2F1C0421160816808298F
:1011F0000BD101688900A1F1C041096841F04002AA
:1012000001688900A1F1C0410A60416B0968426B25
:10121000526841EA0211426B926841EA0221426B34
:10122000928941EA0241426B128A41EA0251426BC1
:10123000127D41EA0261426B926911430268521CBD
:101240009200A2F1C0421160C16AB1F5804F1BD17A
:10125000816B0968826B526841EA0211826B926865
:1012600041EA0221826B128A41EA0251826B127DAD
:1012700041EA0261826B9269114302689200A2F115
:10128000C042C2F8041107E06FF0704201688900A3
:10129000A1F1C041C1F8042170472DE9F041024697
:1012A00000250026002000230024002791F803C019
:1012B0000CF00F0591F803C00CF0100CBCF1000FFE
:1012C00003D091F802C04CEA050591F800C0BCF1CA
:1012D000000F31D0146800202BE04FF0010C0CFA05
:1012E00000F3B1F800C00CEA03069E4220D183004F
:1012F0004FF00F0C0CFA03F7BC4305FA03FC4CEA61
:10130000040491F803C0BCF1280F06D14FF0010C82
:101310000CFA00FCC2F814C00AE091F803C0BCF15A
:10132000480F05D14FF0010C0CFA00FCC2F810C0B8
:10133000401C0828D1D31460B1F800C0BCF1FF0FE5
:1013400034DD546800202EE000F1080C4FF0010855
:1013500008FA0CF3B1F800C00CEA03069E4221D152
:1013600083004FF00F0C0CFA03F7BC4305FA03FCA3
:101370004CEA040491F803C0BCF1280F05D100F138
:10138000080C08FA0CF8C2F8148091F803C0BCF1FC
:10139000480F07D100F1080C4FF0010808FA0CF8CB
:1013A000C2F81080401C0828CED35460BDE8F081FC
:1013B000F0B50A46002300240021002500F0004675
:1013C000B6F1004F02D11D4EF16901E01B4E71686C
:1013D000C0F3034583B200F44016B6F5401F08D1B0
:1013E00021F07061154E766826F07066134F7E60AE
:1013F00012E000F48016B6F5801F06D1032606FA27
:1014000005F4A14341F0706106E0460D360103FA90
:1014100006F6B14341F0706122B1460D360103FA80
:1014200006F6314300F00046B6F1004F02D1034EFC
:10143000F16101E0014E7160F0BD0000000001406B
:101440000146886880B2704741617047016170470A
:10145000C160704710B504460723012221460948A0
:10146000FFF70AFA01210748FFF767FA00BF0221D8
:101470000448FFF7C5F90028F9D00248FFF7BCF986
:1014800010BD0000002401402DE9F04107460C4644
:101490000025002608E03846FFF7DCFF054405205C
:1014A00005F0DEFA701CC6B2A642F4DBB5FBF4F020
:1014B00080B2BDE8F08100BFFEE70146CA1701EB2C
:1014C00092729210A1EB820292B9642091FBF0F229
:1014D00000FB121050B94FF4C87091FBF0F200FB02
:1014E000121008B9012070470020FCE70120FAE73C
:1014F0000020F8E708B50121102004F073FB0F204D
:10150000ADF8000010208DF8030003208DF80200D4
:1015100069460848FFF7C1FEF020ADF800004820FA
:101520008DF8030003208DF8020069460148FFF79B
:10153000B4FE08BD0010014070B5044600261748EF
:101540000588408845431548808846F6040188424E
:1015500016D112488079012812D100200F498871D4
:101560002A2048812B2088810021084604F068F851
:1015700001200A4988712B2048812A20888103E0B4
:101580000021084604F05CF804F080FA002602E02E
:1015900003480480761CAE42FAD370BD800100205F
:1015A0000008006C10B50446002C73D17C4988718A
:1015B000F02008804FF4A07048800846808849F2E7
:1015C0004131884211D07648808846F6040188422D
:1015D0000BD07348808845F21031884205D070489E
:1015E000808849F28841884220D12C206C490881AA
:1015F0002A2048812B2088810846808846F60401ED
:1016000088420BD06648808845F21031884205D068
:101610006348808849F28841884206D14FF4A0701F
:101620005F4908804FF4F0704880B4E05C488088DF
:1016300045F21051884210D14FF43050584908817A
:101640004FF4285048814FF42C5088814FF4F070AB
:1016500008804FF4487048809DE05148808841F6EA
:10166000631188420DD12C204D4908812B204881DF
:101670002A2088814FF4F07008804FF44870488029
:1016800089E0222046490881202048812120888144
:1016900081E0FFE70120424988714FF4A070088083
:1016A000F02048800846808849F2413188420BD0BA
:1016B0003B48808845F21031884205D03848808800
:1016C00049F2884188420DD12C20354908812A20D1
:1016D00048812B2088814FF4F07008804FF4A0706F
:1016E00048803FE02E48808846F60401884207D1B2
:1016F0002C202B4908812B2048812A20888131E029
:101700002748808845F21051884210D14FF430505C
:10171000234908814FF4285048814FF42C50888188
:101720004FF4487008804FF4F07048801AE01C486D
:10173000808841F6631188420DD12C201849088118
:101740002A2048812B2088814FF4487008804FF46C
:10175000F070488006E0222011490881212048814C
:10176000202088810E48808846F6040188420BD0EC
:101770000B48808845F21031884205D0084880889F
:1017800049F28841884206D14FF4F070044908803C
:101790004FF4A0704880032003F0D6FD10BD000078
:1017A0008001002030B503460C4615466D48808800
:1017B00049F24131884205D06A48808845F21031AB
:1017C000884214D16749488904F05AF9181204F084
:1017D00051F9D8B204F04EF96249888904F050F901
:1017E000201204F047F9E0B204F044F9B3E05D4898
:1017F000808845F21051884220D15A49488904F026
:101800003FF9181204F036F956494989491C88B243
:1018100004F036F9D8B204F02DF95249888904F061
:101820002FF9201204F026F94E498989491C88B203
:1018300004F026F9E0B204F01DF98CE049488088F4
:1018400041F66311884228D14648807920B945483D
:101850000088401EC01A83B24249488904F010F93A
:10186000181204F007F9D8B204F004F9181204F0C1
:1018700001F9D8B204F0FEF83A49888904F000F979
:10188000201204F0F7F8E0B204F0F4F8201204F0AB
:10189000F1F8E0B204F0EEF85DE03248808846F6F8
:1018A000040188421DD12F488079012804D12D4898
:1018B0000088401EC01A83B22A49488904F0E0F823
:1018C000181204F0D7F8D8B204F0D4F82549888962
:1018D00004F0D6F8201204F0CDF8E0B204F0CAF813
:1018E00039E02048808849F28841884220D11D494A
:1018F000488904F0C5F8181204F0BCF8D8B204F016
:10190000B9F8181204F0B6F8D8B204F0B3F81549D3
:10191000888904F0B5F8201204F0ACF8E0B204F0C5
:10192000A9F8201204F0A6F8E0B204F0A3F812E03F
:101930000C488079012804D10A480088401EC01A4A
:1019400083B208494889194604F0AAF805498889EC
:10195000214604F0A5F80348008903490880881C43
:10196000058030BD80010020FE07006C00B59FB0EF
:101970000121080204F016F901214FF4F47004F07B
:1019800031F90420ADF8780010208DF87B00032099
:101990008DF87A001EA9FE48FFF77FFC642005F051
:1019A0005FF80421FA48FFF74FFD642005F058F86E
:1019B0000421F748FFF74AFD642005F051F84FF481
:1019C0000040ADF8780010208DF87B0003208DF8E2
:1019D0007A001EA9EF48FFF760FC4CF23370ADF8B7
:1019E000780018208DF87B0003208DF87A001EA95E
:1019F000E948FFF752FC4FF68070ADF878001820E8
:101A00008DF87B0003208DF87A001EA9E048FFF7CF
:101A100044FC41F20100ADF8780018208DF87B00FD
:101A200003208DF87A001EA9DC48FFF736FC012060
:101A30000890002009900F200A9000200B900C9035
:101A40000D900E90019002900320039000200490CE
:101A500005900690079006200F900020109011909E
:101A6000102012900020139015901490169017904B
:101A70004FF480501890002019904FF480401A9035
:101A800000201B9008A81C9001A81D900FA8FFF72C
:101A900091FB01210620FFF773FB322004F0E0FFE9
:101AA00049F28840BE49888008468088FF280ADBC2
:101AB000084680884FF6FF71884204D0B848808875
:101AC000B0F5134F7ED1D32003F0DAFF03F008FC0A
:101AD000B349888003F004FCB149888003F000FC1E
:101AE000AF498880084680884FF6FF7101EA0020E0
:101AF000AB49888003F0F4FBA94989880843A849C9
:101B000088800846808849F2413188425AD0A448EA
:101B1000808849F288418842F8D0BF2003F0B0FFA6
:101B200003F0DEFB9E49888003F0DAFB9C49888045
:101B300003F0D6FB9A49888003F0D2FB984988804D
:101B4000084680884FF6FF7101EA0020944988809A
:101B500003F0C6FB9249898808439149888008466A
:101B6000808846F6040188427AD0D42003F088FFAA
:101B700003F0B6FB8A49888003F0B2FB884988806D
:101B800003F0AEFB86498880084680884FF6FF71D7
:101B900001EA00208249888003F0A2FB80498988FD
:101BA00008437F4988800846808845F21031884282
:101BB00056D04FF45A4003F063FF03F091FB78498D
:101BC000888000E04CE04FF45B4003F059FF03F0E5
:101BD00087FB73498880084680884FF6FF7101EAC9
:101BE00000206F4988804FF45C4003F049FF03F008
:101BF00077FB6B4989880843694988800846808853
:101C0000B0F5004F02D145F21050888064488088BA
:101C100045F21051884223D0A12003F031FF03F098
:101C20005FFB5F49888003F05BFB5D498880084665
:101C300080884FF6FF7101EA00205949888003F03F
:101C40004FFB574989880843554988800846808852
:101C500045F26171884203D141F663105049888092
:101C60004F4881884FA0FEF703FB4D48808849F21A
:101C7000413188427ED1CF2003F002FF002003F0E3
:101C8000F9FEC12003F0F6FE302003F0F3FEED2054
:101C900003F0F6FE642003F0EDFE032003F0EAFEFD
:101CA000122003F0E7FE812003F0E4FEE82003F0B9
:101CB000E7FE852003F0DEFE102003F0DBFE7A2035
:101CC00003F0D8FECB2003F0DBFE392003F0D2FE78
:101CD0002C2003F0CFFE002003F0CCFE342003F0D4
:101CE000C9FE022003F0C6FEF72003F0C9FE202043
:101CF00003F0C0FEEA2003F0C3FE002003F0BAFEAA
:101D0000002003F0B7FEC02003F0BAFE1B2003F052
:101D1000B1FEC12003F0B4FE012003F0ABFEC520EC
:101D200003F0AEFE302003F0A5FE302003F0A2FE4B
:101D3000C72003F0A5FEB72003F09CFE362003F079
:101D40009FFE482003F096FE3A2003F099FE5520AE
:101D500003F090FEB12003F093FE002003F08AFE12
:101D60001A2003F087FEB62003F08AFE0A2003F053
:101D700081FE00E0AAE0A22003F07CFEF22003F046
:101D80007FFE002003F076FE262003F079FE11E0AE
:101D900000180140000C01400014014000200140E7
:101DA00080010020204C43442049443A25780D0A04
:101DB00000000000012003F05DFEE02003F060FE63
:101DC0000F2003F057FE2A2003F054FE282003F0D2
:101DD00051FE082003F04EFE0E2003F04BFE0820BB
:101DE00003F048FE542003F045FEA92003F042FE14
:101DF000432003F03FFE0A2003F03CFE0F2003F0D7
:101E000039FE002003F036FE002003F033FE0020F0
:101E100003F030FE002003F02DFEE12003F030FE41
:101E2000002003F027FE152003F024FE172003F006
:101E300021FE072003F01EFE112003F01BFE0620EA
:101E400003F018FE2B2003F015FE562003F012FEBF
:101E50003C2003F00FFE052003F00CFE102003F0E1
:101E600009FE0F2003F006FE3F2003F003FE3F2093
:101E700003F000FE0F2003F0FDFD2B2003F000FE19
:101E8000002003F0F7FD002003F0F4FD012003F033
:101E9000F1FD3F2003F0EEFD2A2003F0F1FD0020CC
:101EA00003F0E8FD002003F0E5FD002003F0E2FD73
:101EB000EF2003F0DFFD112003F0E2FD782004F0B5
:101EC000CFFD292003F0DCFD03F0F2B9FE48808845
:101ED00049F2884188427CD1F72003F0D1FDA92046
:101EE00003F0C8FD512003F0C5FD2C2003F0C2FD16
:101EF000822003F0BFFDC02003F0C2FD112003F0DB
:101F0000B9FD092003F0B6FDC12003F0B9FD412061
:101F100003F0B0FDC52003F0B3FD002003F0AAFDDF
:101F20000A2003F0A7FD802003F0A4FDB12003F0F8
:101F3000A7FDB02003F09EFD112003F09BFDB4200F
:101F400003F09EFD022003F095FDB62003F098FDFE
:101F5000022003F08FFD222003F08CFDB72003F058
:101F60008FFDC62003F086FDBE2003F089FD002012
:101F700003F080FD042003F07DFDE92003F080FDE7
:101F8000002003F077FD362003F07AFD082003F0EF
:101F900071FD3A2003F074FD552003F06BFDE02045
:101FA00003F06EFD002003F065FD072003F062FDE5
:101FB000102003F05FFD092003F05CFD172003F003
:101FC00059FD0B2003F056FD412003F053FD8920FD
:101FD00000E050E003F04EFD4B2003F04BFD0A20E3
:101FE00003F048FD0C2003F045FD0E2003F042FDF8
:101FF000182003F03FFD1B2003F03CFD0F2003F0F1
:1020000039FDE12003F03CFD002003F033FD1720F3
:1020100003F030FD1A2003F02DFD042003F02AFD0B
:102020000E2003F027FD062003F024FD2F2003F0EF
:1020300021FD452003F01EFD432003F01BFD02207F
:1020400003F018FD0A2003F015FD092003F012FD2E
:10205000322003F00FFD362003F00CFD0F2003F0BB
:1020600009FD112003F00CFD782004F0F9FC292073
:1020700003F006FD28E79448808846F6040188426C
:102080007ED1112003F0FCFC142004F0E9FCD020E8
:1020900003F0F6FC072003F0EDFC422003F0EAFC1D
:1020A0001D2003F0E7FCD12003F0EAFC002003F040
:1020B000E1FC1A2003F0DEFC092003F0DBFCD22057
:1020C00003F0DEFC012003F0D5FC222003F0D2FC5B
:1020D000C02003F0D5FC102003F0CCFC3B2003F023
:1020E000C9FC002003F0C6FC022003F0C3FC112051
:1020F00003F0C0FCC52003F0C3FC032003F0BAFCCE
:10210000C82003F0BDFC002003F0B4FC252003F040
:10211000B1FC212003F0AEFC052003F0ABFC002055
:1021200003F0A8FC0A2003F0A5FC652003F0A2FC44
:10213000252003F09FFC772003F09CFC502003F047
:1021400099FC0F2003F096FC002003F093FCF8208C
:1021500003F096FC012003F08DFCFE2003F090FCC0
:10216000002003F087FC022003F084FC202003F011
:1021700087FC362003F084FC082003F07BFC00E0A1
:102180002AE03A2003F07CFC552003F073FC2B205E
:1021900003F076FC002003F06DFC002003F06AFCE5
:1021A000012003F067FC3F2003F064FC2A2003F0C9
:1021B00067FC002003F05EFC002003F05BFC0120C4
:1021C00003F058FCDF2003F055FC782004F048FCB5
:1021D000292003F055FC77E63B48808845F2103112
:1021E000884240F07C87ED2003F04AFC012003F098
:1021F00041FCFE2003F03EFCEE2003F041FCDE201B
:1022000003F038FC212003F035FCF12003F038FC0A
:10221000012003F02FFCDF2003F032FC102003F03C
:1022200029FCC42003F02CFC8F2003F023FCC620E3
:1022300003F026FC002003F01DFCE22003F01AFC52
:10224000E22003F017FCE22003F014FCBF2003F0AF
:1022500017FCAA2003F00EFCB02003F011FC0D20A7
:1022600003F008FC002003F005FC0D2003F002FC45
:10227000002003F0FFFB112003F0FCFB002003F023
:10228000F9FB192003F0F6FB002003F0F3FB2120FB
:1022900003F0F0FB002003F0EDFB2D2003F0EAFB40
:1022A000002003F0E7FB3D2003F0E4FB002003F0F7
:1022B000E1FB5D2003F0DEFB002003F0DBFB5D2093
:1022C00003F0D8FB002001E08001002003F0D2FBE6
:1022D000B12003F0D5FB802003F0CCFB002003F0FD
:1022E000C9FB8B2003F0C6FB002003F0C3FB962044
:1022F00003F0C0FB002003F0BDFBB22003F0C0FBE5
:10230000002003F0B7FB002003F0B4FB022003F031
:10231000B1FB002003F0AEFB032003F0ABFB002079
:1023200003F0A8FBB32003F0ABFB002003F0A2FBFB
:10233000002003F09FFB002003F09CFB002003F033
:1023400099FB002003F096FB002003F093FB002094
:1023500003F090FB002003F08DFB002003F08AFBCC
:10236000002003F087FB002003F084FB002003F033
:1023700081FB002003F07EFB002003F07BFB0020AC
:1023800003F078FB002003F075FB002003F072FBE4
:10239000002003F06FFB002003F06CFB002003F033
:1023A00069FB002003F066FB002003F063FB0020C4
:1023B00003F060FB002003F05DFBB42003F060FB42
:1023C0008B2003F057FB002003F054FB962003F012
:1023D00051FB002003F04EFBA12003F04BFB00203B
:1023E00003F048FBB52003F04BFB022003F042FB57
:1023F000002003F03FFB032003F03CFB002003F030
:1024000039FB042003F036FB002003F033FBB62039
:1024100003F036FB002003F02DFB002003F02AFB25
:10242000B72003F02DFB002003F024FB002003F075
:1024300021FB3F2003F01EFB002003F01BFB5E206E
:1024400003F018FB002003F015FB642003F012FBDF
:10245000002003F00FFB8C2003F00CFB002003F0A6
:1024600009FBAC2003F006FB002003F003FBDC209B
:1024700003F000FB002003F0FDFA702003F0FAFAED
:10248000002003F0F7FA902003F0F4FA002003F0A4
:10249000F1FAEB2003F0EEFA002003F0EBFADC2077
:1024A00003F0E8FA002003F0E5FAB82003F0E8FAB8
:1024B000002003F0DFFA002003F0DCFA002003F034
:1024C000D9FA002003F0D6FA002003F0D3FA002056
:1024D00003F0D0FA002003F0CDFA002003F0CAFA8E
:1024E000BA2003F0CDFA242003F0C4FA002003F050
:1024F000C1FA002003F0BEFA002003F0BBFAC120AD
:1025000003F0BEFA202003F0B5FA002003F0B2FA7F
:10251000542003F0AFFA002003F0ACFAFF2003F0E0
:10252000A9FA002003F0A6FAC22003F0A9FA0A20B3
:1025300003F0A0FA002003F09DFA042003F09AFAB9
:10254000002003F097FAC32003F09AFA3C2003F02E
:1025500091FA002003F08EFA3A2003F08BFA002063
:1025600003F088FA392003F085FA002003F082FA9C
:10257000372003F07FFA002003F07CFA3C2003F0C0
:1025800079FA002003F076FA362003F073FA00207F
:1025900003F070FA322003F06DFA002003F06AFABB
:1025A0002F2003F067FA002003F064FA2C2003F0D8
:1025B00061FA002003F05EFA292003F05BFA0020A4
:1025C00003F058FA262003F055FA002003F052FADF
:1025D000242003F04FFA002003F04CFA242003F0EB
:1025E00049FA002003F046FA232003F043FA0020C2
:1025F00003F040FA3C2003F03DFA002003F03AFAE1
:10260000362003F037FA002003F034FA322003F0CA
:1026100031FA002003F02EFA2F2003F02BFA0020CD
:1026200003F028FA2C2003F025FA002003F022FA08
:10263000292003F01FFA002003F01CFA262003F0E3
:1026400019FA002003F016FA242003F013FA0020F0
:1026500003F010FA242003F00DFA002003F00AFA28
:10266000232003F007FA002003F004FAC42003F04B
:1026700007FA622003F0FEF9002003F0FBF90520C1
:1026800003F0F8F9002003F0F5F9842003F0F2F9E3
:10269000002003F0EFF9F02003F0ECF9002003F044
:1026A000E9F9182003F0E6F9002003F0E3F9A4208B
:1026B00003F0E0F9002003F0DDF9182003F0DAF967
:1026C000002003F0D7F9502003F0D4F9002003F0E4
:1026D000D1F90C2003F0CEF9002003F0CBF917203C
:1026E00003F0C8F9002003F0C5F9952003F0C2F902
:1026F000002003F0BFF9F32003F0BCF9002003F041
:10270000B9F9E62003F0B6F9002003F0B3F9C520CB
:1027100003F0B6F9322003F0ADF9002003F0AAF976
:10272000442003F0A7F9002003F0A4F9652003F08A
:10273000A1F9002003F09EF9762003F09BF9002018
:1027400003F098F9882003F095F9002003F092F93E
:10275000C62003F095F9202003F08CF9002003F047
:1027600089F9172003F086F9002003F083F901208E
:1027700003F080F9002003F07DF9C72003F080F911
:10278000002003F077F9002003F074F9002003F033
:1027900071F9002003F06EF9C82003F071F90020F0
:1027A00003F068F9002003F065F9002003F062F9F6
:1027B000002003F05FF9C92003F062F9002003F064
:1027C00059F9002003F056F9002003F053F90020D6
:1027D00003F050F9002003F04DF9002003F04AF90E
:1027E000002003F047F9002003F044F9002003F033
:1027F00041F9002003F03EF9002003F03BF90020EE
:1028000003F038F9002003F035F9002003F032F925
:10281000002003F02FF9002003F02CF9E02003F052
:102820002FF9162003F026F9002003F023F91C20CD
:1028300003F020F9002003F01DF9212003F01AF91C
:10284000002003F017F9362003F014F9002003F0FC
:1028500011F9462003F00EF9002003F00BF9522085
:1028600003F008F9002003F005F9642003F002F9F1
:10287000002003F0FFF87A2003F0FCF8002003F0BA
:10288000F9F88B2003F0F6F8002003F0F3F8992014
:1028900003F0F0F8002003F0EDF8A82003F0EAF8C8
:1028A000002003F0E7F8B92003F0E4F8002003F07B
:1028B000E1F8C42003F0DEF8002003F0DBF8CA20C2
:1028C00003F0D8F8002003F0D5F8D22003F0D2F8B6
:1028D000002003F0CFF8D92003F0CCF8002003F05B
:1028E000C9F8E02003F0C6F8002003F0C3F8F32095
:1028F00003F0C0F8002003F0BDF8E12003F0C0F8B9
:10290000162003F0B7F8002003F0B4F81C2003F001
:10291000B1F8002003F0AEF8222003F0ABF800205D
:1029200003F0A8F8362003F0A5F8002003F0A2F881
:10293000452003F09FF8002003F09CF8522003F09C
:1029400099F8002003F096F8642003F093F8002033
:1029500003F090F87A2003F08DF8002003F08AF855
:102960008B2003F087F8002003F084F8992003F00F
:1029700081F8002003F07EF8A82003F07BF8002007
:1029800003F078F8B92003F075F8002003F072F82E
:10299000C42003F06FF8002003F06CF8CA2003F0A5
:1029A00069F8002003F066F8D22003F063F80020F5
:1029B00003F060F8D82003F05DF8002003F05AF827
:1029C000E02003F057F8002003F054F8F32003F060
:1029D00051F8002003F04EF8E22003F051F80520F2
:1029E00003F048F8002003F045F80B2003F042F80C
:1029F000002003F03FF81B2003F03CF8002003F018
:102A000039F8342003F036F8002003F033F844207E
:102A100003F030F8002003F02DF84F2003F02AF8DF
:102A2000002003F027F8612003F024F8002003F0D1
:102A300021F8792003F01EF8002003F01BF888200D
:102A400003F018F8002003F015F8972003F012F8AF
:102A5000002003F00FF8A62003F00CF8002003F08C
:102A600009F8B72003F006F8002003F003F8C220AD
:102A700003F000F8002002F0FDFFC72002F0FAFF8B
:102A8000002002F0F7FFD12002F0F4FF002002F056
:102A9000F1FFD62002F0EEFF002002F0EBFFDD2078
:102AA00002F0E8FF002002F0E5FFF32002F0E2FF71
:102AB000002002F0DFFFE32002F0E2FF052002F039
:102AC000D9FF002002F0D6FF0A2002F0D3FF002039
:102AD00002F0D0FF1C2002F0CDFF002002F0CAFF60
:102AE000332002F0C7FF002002F0C4FF442002F0B0
:102AF000C1FF002002F0BEFF502002F0BBFF00200B
:102B000002F0B8FF622002F0B5FF002002F0B2FF31
:102B1000782002F0AFFF002002F0ACFF882002F026
:102B2000A9FF002002F0A6FF972002F0A3FF0020DB
:102B300002F0A0FFA62002F09DFF002002F09AFF05
:102B4000B72002F097FF002002F094FFC22002F0AD
:102B500091FF002002F08EFFC72002F08BFF0020C3
:102B600002F088FFD12002F085FF002002F082FFF2
:102B7000D52002F07FFF002002F07CFFDD2002F074
:102B800079FF002002F076FFF32002F073FF0020AF
:102B900002F070FFE42002F073FF012002F06AFFF0
:102BA000002002F067FF012002F064FF002002F025
:102BB00061FF022002F05EFF002002F05BFF2A208E
:102BC00002F058FF002002F055FF3C2002F052FFB7
:102BD000002002F04FFF4B2002F04CFF002002F0DB
:102BE00049FF5D2002F046FF002002F043FF742001
:102BF00002F040FF002002F03DFF842002F03AFF87
:102C0000002002F037FF932002F034FF002002F092
:102C100031FFA22002F02EFF002002F02BFFB32094
:102C200002F028FF002002F025FFBE2002F022FF64
:102C3000002002F01FFFC42002F01CFF002002F061
:102C400019FFCD2002F016FF002002F013FFD32061
:102C500002F010FF002002F00DFFDD2002F00AFF5D
:102C6000002002F007FFF32002F004FF002002F032
:102C700001FFE52002F004FF002002F0FBFE00202F
:102C800002F0F8FE002002F0F5FE002002F0F2FE55
:102C9000022002F0EFFE002002F0ECFE292002F0FC
:102CA000E9FE002002F0E6FE3C2002F0E3FE0020F8
:102CB00002F0E0FE4B2002F0DDFE002002F0DAFE22
:102CC0005D2002F0D7FE002002F0D4FE742002F056
:102CD000D1FE002002F0CEFE842002F0CBFE0020C8
:102CE00002F0C8FE932002F0C5FE002002F0C2FEF2
:102CF000A22002F0BFFE002002F0BCFEB32002F0D2
:102D0000B9FE002002F0B6FEBE2002F0B3FE0020A5
:102D100002F0B0FEC42002F0ADFE002002F0AAFED8
:102D2000CD2002F0A7FE002002F0A4FED32002F086
:102D3000A1FE002002F09EFEDC2002F09BFE00209F
:102D400002F098FEF32002F095FE002002F092FEC1
:102D5000E62002F095FE112002F08CFE002002F029
:102D600089FE342002F086FE002002F083FE562009
:102D700002F080FE002002F07DFE762002F07AFE56
:102D8000002002F077FE772002F074FE002002F0AF
:102D900071FE662002F06EFE002002F06BFE8820BD
:102DA00002F068FE002002F065FE992002F062FE4B
:102DB000002002F05FFEBB2002F05CFE002002F06B
:102DC00059FE992002F056FE002002F053FE6620C4
:102DD00002F050FE002002F04DFE552002F04AFEA7
:102DE000002002F047FE552002F044FE002002F0D1
:102DF00041FE452002F03EFE002002F03BFE432053
:102E000002F038FE002002F035FE442002F032FECF
:102E1000002002F02FFEE72002F032FE322002F006
:102E200029FE002002F026FE552002F023FE00209D
:102E300002F020FE762002F01DFE002002F01AFEB5
:102E4000662002F017FE002002F014FE672002F058
:102E500011FE002002F00EFE672002F00BFE0020A3
:102E600002F008FE872002F005FE002002F002FEBC
:102E7000992002F0FFFD002002F0FCFDBB2002F0D3
:102E8000F9FD002002F0F6FD992002F0F3FD00208C
:102E900002F0F0FD772002F0EDFD002002F0EAFDE7
:102EA000442002F0E7FD002002F0E4FD562002F08D
:102EB000E1FD002002F0DEFD232002F0DBFD00201A
:102EC00002F0D8FD332002F0D5FD002002F0D2FD43
:102ED000452002F0CFFD002002F0CCFDE82002F0FA
:102EE000CFFD002002F0C6FD002002F0C3FD9920B6
:102EF00002F0C0FD002002F0BDFD872002F0BAFD07
:102F0000002002F0B7FD882002F0B4FD002002F09E
:102F1000B1FD772002F0AEFD002002F0ABFD66208F
:102F200002F0A8FD002002F0A5FD882002F0A2FD1D
:102F3000002002F09FFDAA2002F09CFD002002F07C
:102F400099FDBB2002F096FD002002F093FD992030
:102F500002F090FD002002F08DFD662002F08AFD57
:102F6000002002F087FD552002F084FD002002F0D1
:102F700081FD552002F07EFD002002F07BFD442003
:102F800002F078FD002002F075FD442002F072FD91
:102F9000002002F06FFD552002F06CFD002002F0D1
:102FA00069FDE92002F06CFDAA2002F063FD00201B
:102FB00002F060FD002002F05DFD002002F05AFDED
:102FC000002002F05DFDAA2002F054FDCF2002F0A7
:102FD00057FD002002F04EFD002002F04BFD0020C6
:102FE00002F048FD002002F045FD002002F042FD05
:102FF000002002F03FFD002002F03CFD002002F026
:1030000039FD002002F036FD002002F033FD0020E3
:1030100002F030FD002002F02DFD002002F02AFD1C
:10302000002002F027FD002002F024FD002002F025
:1030300021FD002002F01EFDF02002F021FD002005
:1030400002F018FD502002F015FD002002F012FDE4
:10305000002002F00FFD002002F00CFDF32002F032
:103060000FFD002002F006FDF92002F009FD062008
:1030700002F000FD102002F0FDFC292002F0FAFC15
:10308000002002F0F7FC3A2002F0FAFC552002F092
:10309000F1FC112002F0F4FC642003F0E1FC292093
:1030A00002F0EEFC352002F0EBFC002002F0E2FC26
:1030B000512002F0E5FCFF2002F0DCFC532002F07E
:1030C000DFFC2C2002F0D6FC552002F0D9FC822037
:1030D00002F0D0FC2C2002F0D3FC02F0E9B8FE484C
:1030E000808845F2105188427ED155214FF47040BE
:1030F00002F0D6FCAA214FF2010002F0D1FC5221CD
:103100004FF2020002F0CCFC08214FF2030002F063
:10311000C7FC01214FF2040002F0C2FC0D214FF464
:10312000304002F0BDFC0D214BF2010002F0B8FC72
:103130000D214BF2020002F0B3FC34214FF4364073
:1031400002F0AEFC34214BF2016002F0A9FC342104
:103150004BF2026002F0A4FC0D214FF4314002F06A
:103160009FFC0D214BF2011002F09AFC0D214BF255
:10317000021002F095FC34214FF4374002F090FC2D
:1031800034214BF2017002F08BFC34214BF20270BF
:1031900002F086FC00214FF4324002F081FC002155
:1031A0004BF2012002F07CFC00214BF2022002F0E5
:1031B00077FC24214FF4384002F072FC24214BF6B6
:1031C000010002F06DFC24214BF6020002F068FCC5
:1031D00001214FF43F4002F063FC0F214FF43340D4
:1031E00002F05EFC0F2100E0FEE34BF2013002F042
:1031F00057FC0F214BF2023002F052FC34214FF405
:10320000394002F04DFC34214BF6011002F048FC2D
:1032100034214BF6021002F043FC08214FF43540F4
:1032200002F03EFC08214BF2015002F039FC08216B
:103230004BF2025002F034FC03214FF4424002F002
:103240002FFC24214FF43A4002F02AFC24214BF6B3
:10325000012002F025FC24214BF6022002F020FC84
:1032600000214FF43C4002F01BFC78214BF601405A
:1032700002F016FC00214BF6024002F011FC002186
:103280004FF43D4002F00CFC78214BF6015002F067
:1032900007FC00214BF6025002F002FC00214FF423
:1032A0003E4002F0FDFB64214BF6016002F0F8FBAA
:1032B00000214FF4514002F0F3FB33214DF2011095
:1032C00002F0EEFB00214DF2021002F0E9FB342186
:1032D0004DF2031002F0E4FB00214DF2041002F065
:1032E000DFFB3A214DF2051002F0DAFB00214DF22E
:1032F000061002F0D5FB4A214DF2071002F0D0FB78
:1033000000214DF2081002F0CBFB5C214DF20910B8
:1033100002F0C6FB00214DF20A1002F0C1FB812130
:103320004DF20B1002F0BCFB00214DF20C1002F02C
:10333000B7FBA6214DF20D1002F0B2FB00214DF2B9
:103340000E1002F0ADFBE5214DF20F1002F0A8FBCC
:1033500001214DF2101002F0A3FB13214DF21110C8
:1033600002F09EFB01214DF2121002F099FB542154
:103370004DF2131002F094FB01214DF2141002F0F3
:103380008FFB82214DF2151002F08AFB01214DF2D4
:10339000161002F085FBCA214DF2171002F080FBD7
:1033A00002214DF2181002F07BFB00214DF21910A2
:1033B00002F076FB02214DF21A1002F071FB01219E
:1033C0004DF21B1002F06CFB02214DF21C1002F0BA
:1033D00067FB34214DF21D1002F062FB02214DF219
:1033E0001E1002F05DFB67214DF21F1002F058FB2A
:1033F00002214DF2201002F053FB84214DF22110E6
:1034000002F04EFB02214DF2221002F049FBA421F2
:103410004DF2231002F044FB02214DF2241002F081
:103420003FFBB7214DF2251002F03AFB02214DF28D
:10343000261002F035FBCF214DF2271002F030FBB1
:1034400002214DF2281002F02BFBDE214DF2291053
:1034500002F026FB02214DF22A1002F021FBF2219C
:103460004DF22B1002F01CFB02214DF22C1002F049
:1034700017FBFE214DF22D1002F012FB03214DF23D
:103480002E1002F00DFB10214DF22F1002F008FB60
:1034900003214DF2301002F003FB33214DF23110C5
:1034A00002F0FEFA03214DF2321002F0F9FA6D211A
:1034B0004DF2331002F0F4FA00214FF4524002F0C2
:1034C000EFFA33214DF2012002F0EAFA00214DF229
:1034D000022002F0E5FA01E08001002034214DF2E3
:1034E000032002F0DDFA00214DF2042002F0D8FAA8
:1034F0003A214DF2052002F0D3FA00214DF20620C8
:1035000002F0CEFA4A214DF2072002F0C9FA00215A
:103510004DF2082002F0C4FA5C214DF2092002F0BD
:10352000BFFA00214DF20A2002F0BAFA81214DF2D1
:103530000B2002F0B5FA00214DF20C2002F0B0FA97
:10354000A6214DF20D2002F0ABFA00214DF20E2023
:1035500002F0A6FAE5214DF20F2002F0A1FA0121B6
:103560004DF2102002F09CFA13214DF2112002F0CE
:1035700097FA01214DF2122002F092FA54214DF2F5
:10358000132002F08DFA01214DF2142002F088FA86
:1035900082214DF2152002F083FA01214DF216200E
:1035A00002F07EFACA214DF2172002F079FA0221C8
:1035B0004DF2182002F074FA00214DF2192002F0A9
:1035C0006FFA02214DF21A2002F06AFA01214DF23F
:1035D0001B2002F065FA02214DF21C2002F060FA75
:1035E00034214DF21D2002F05BFA02214DF21E2023
:1035F00002F056FA67214DF21F2002F051FA022123
:103600004DF2202002F04CFA84214DF2212002F0EC
:1036100047FA02214DF2222002F042FAA4214DF293
:10362000232002F03DFA02214DF2242002F038FA64
:10363000B7214DF2252002F033FA02214DF2262067
:1036400002F02EFACF214DF2272002F029FA0221B2
:103650004DF2282002F024FADE214DF2292002F05A
:103660001FFA02214DF22A2002F01AFAF2214DF23D
:103670002B2002F015FA02214DF22C2002F010FA54
:10368000FE214DF22D2002F00BFA03214DF22E20E7
:1036900002F006FA10214DF22F2002F001FA032168
:1036A0004DF2302002F0FCF933214DF2312002F0CE
:1036B000F7F903214DF2322002F0F2F96D214DF2BB
:1036C000332002F0EDF900214FF4534002F0E8F905
:1036D00033214DF2013002F0E3F900214DF20230C6
:1036E00002F0DEF934214DF2033002F0D9F9002165
:1036F0004DF2043002F0D4F93A214DF2053002F0D7
:10370000CFF900214DF2063002F0CAF94A214DF2FC
:10371000073002F0C5F900214DF2083002F0C0F97F
:103720005C214DF2093002F0BBF900214DF20A3064
:1037300002F0B6F981214DF20B3002F0B1F900210F
:103740004DF20C3002F0ACF9A6214DF20D3002F032
:10375000A7F900214DF20E3002F0A2F9E5214DF259
:103760000F3002F09DF901214DF2103002F098F96E
:1037700013214DF2113002F093F901214DF2123074
:1037800002F08EF954214DF2133002F089F9012133
:103790004DF2143002F084F982214DF2153002F01E
:1037A0007FF901214DF2163002F07AF9CA214DF26B
:1037B000173002F075F902214DF2183002F070F95D
:1037C00000214DF2193002F06BF902214DF21A304E
:1037D00002F066F901214DF21B3002F061F902217D
:1037E0004DF21C3002F05CF934214DF21D3002F034
:1037F00057F902214DF21E3002F052F967214DF2C5
:103800001F3002F04DF902214DF2203002F048F94C
:1038100084214DF2213002F043F902214DF2223091
:1038200002F03EF9A4214DF2233002F039F90221D1
:103830004DF2243002F034F9B7214DF2253002F078
:103840002FF902214DF2263002F02AF9CF214DF254
:10385000273002F025F902214DF2283002F020F93C
:10386000DE214DF2293002F01BF902214DF22A30FF
:1038700002F016F9F2214DF22B3002F011F902217B
:103880004DF22C3002F00CF9FE214DF22D3002F0F9
:1038900007F903214DF22E3002F002F910214DF20A
:1038A0002F3002F0FDF803214DF2303002F0F8F82D
:1038B00033214DF2313002F0F3F803214DF2323072
:1038C00002F0EEF86D214DF2333002F0E9F80021FC
:1038D0004FF4544002F0E4F833214DF2014002F07D
:1038E000DFF800214DF2024002F0DAF834214DF207
:1038F000034002F0D5F800214DF2044002F0D0F868
:103900003A214DF2054002F0CBF800214DF206407D
:1039100002F0C6F84A214DF2074002F0C1F800213A
:103920004DF2084002F0BCF85C214DF2094002F073
:10393000B7F800214DF20A4002F0B2F881214DF2B1
:103940000B4002F0ADF800214DF20C4002F0A8F857
:10395000A6214DF20D4002F0A3F800214DF20E40D9
:1039600002F09EF8E5214DF20F4002F099F8012196
:103970004DF2104002F094F813214DF2114002F084
:103980008FF801214DF2124002F08AF854214DF2D5
:10399000134002F085F801214DF2144002F080F846
:1039A00082214DF2154002F07BF801214DF21640C4
:1039B00002F076F8CA214DF2174002F071F80221A8
:1039C0004DF2184002F06CF800214DF2194002F05F
:1039D00067F802214DF21A4002F062F801214DF21F
:1039E0001B4002F05DF800E004E302214DF21C40B0
:1039F00002F056F834214DF21D4002F051F8022138
:103A00004DF21E4002F04CF867214DF21F4002F0CB
:103A100047F802214DF2204002F042F884214DF295
:103A2000214002F03DF802214DF2224002F038F828
:103A3000A4214DF2234002F033F802214DF224403C
:103A400002F02EF8B7214DF2254002F029F80221AC
:103A50004DF2264002F024F8CF214DF2274002F02B
:103A60001FF802214DF2284002F01AF8DE214DF233
:103A7000294002F015F802214DF22A4002F010F818
:103A8000F2214DF22B4002F00BF802214DF22C40B6
:103A900002F006F8FE214DF22D4002F001F803215C
:103AA0004DF22E4001F0FCFF10214DF22F4001F0AD
:103AB000F7FF03214DF2304001F0F2FF33214DF2C8
:103AC000314001F0EDFF03214DF2324001F0E8FFFB
:103AD0006D214DF2334001F0E3FF00214FF45540DA
:103AE00001F0DEFF33214DF2015001F0D9FF00213A
:103AF0004DF2025001F0D4FF34214DF2035001F099
:103B0000CFFF00214DF2045001F0CAFF3A214DF2DF
:103B1000055001F0C5FF00214DF2065001F0C0FF35
:103B20004A214DF2075001F0BBFF00214DF2085031
:103B300001F0B6FF5C214DF2095001F0B1FF002108
:103B40004DF20A5001F0ACFF81214DF20B5001F013
:103B5000A7FF00214DF20C5001F0A2FFA6214DF26B
:103B60000D5001F09DFF00214DF20E5001F098FF25
:103B7000E5214DF20F5001F093FF01214DF210505D
:103B800001F08EFF13214DF2115001F089FF012148
:103B90004DF2125001F084FF54214DF2135001F008
:103BA0007FFF01214DF2145001F07AFF82214DF286
:103BB000155001F075FF01214DF2165001F070FF14
:103BC000CA214DF2175001F06BFF02214DF218503F
:103BD00001F066FF00214DF2195001F061FF022152
:103BE0004DF21A5001F05CFF01214DF21B5001F023
:103BF00057FF02214DF21C5001F052FF34214DF2CB
:103C00001D5001F04DFF02214DF21E5001F048FF02
:103C100067214DF21F5001F043FF02214DF2205069
:103C200001F03EFF84214DF2215001F039FF0221C5
:103C30004DF2225001F034FFA4214DF2235001F047
:103C40002FFF02214DF2245001F02AFFB7214DF23F
:103C5000255001F025FF02214DF2265001F020FFF2
:103C6000CF214DF2275001F01BFF02214DF22850C9
:103C700001F016FFDE214DF2295001F011FF022163
:103C80004DF22A5001F00CFFF2214DF22B5001F0C1
:103C900007FF02214DF22C5001F002FFFE214DF2F0
:103CA0002D5001F0FDFE03214DF22E5001F0F8FEE3
:103CB00010214DF22F5001F0F3FE03214DF2305050
:103CC00001F0EEFE33214DF2315001F0E9FE032107
:103CD0004DF2325001F0E4FE6D214DF2335001F00F
:103CE000DFFE00214FF4564001F0DAFE33214DF2A1
:103CF000016001F0D5FE00214DF2026001F0D0FE1E
:103D000034214DF2036001F0CBFE00214DF204603E
:103D100001F0C6FE3A214DF2056001F0C1FE00211E
:103D20004DF2066001F0BCFE4A214DF2076001F041
:103D3000B7FE00214DF2086001F0B2FE5C214DF2A9
:103D4000096001F0ADFE00214DF20A6001F0A8FE0D
:103D500081214DF20B6001F0A3FE00214DF20C60B9
:103D600001F09EFEA6214DF20D6001F099FE0021AA
:103D70004DF20E6001F094FEE5214DF20F6001F06E
:103D80008FFE01214DF2106001F08AFE13214DF2E9
:103D9000116001F085FE01214DF2126001F080FEFC
:103DA00054214DF2136001F07BFE01214DF21460AD
:103DB00001F076FE82214DF2156001F071FE0121C5
:103DC0004DF2166001F06CFECA214DF2176001F051
:103DD00067FE02214DF2186001F062FE00214DF2F3
:103DE000196001F05DFE02214DF21A6001F058FEEB
:103DF00001214DF21B6001F053FE02214DF21C60C7
:103E000001F04EFE34214DF21D6001F049FE022109
:103E10004DF21E6001F044FE67214DF21F6001F07B
:103E20003FFE02214DF2206001F03AFE84214DF266
:103E3000216001F035FE02214DF2226001F030FEDA
:103E4000A4214DF2236001F02BFE02214DF22460EB
:103E500001F026FEB7214DF2256001F021FE02217E
:103E60004DF2266001F01CFECF214DF2276001F0DB
:103E700017FE02214DF2286001F012FEDE214DF204
:103E8000296001F00DFE02214DF22A6001F008FECA
:103E9000F2214DF22B6001F003FE02214DF22C6065
:103EA00001F0FEFDFE214DF22D6001F0F9FD032130
:103EB0004DF22E6001F0F4FD10214DF22F6001F063
:103EC000EFFD03214DF2306001F0EAFD33214DF2A8
:103ED000316001F0E5FD03214DF2326001F0E0FDBB
:103EE0006D214DF2336001F0DBFD55214FF4704040
:103EF00001F0D6FDAA214FF2010001F0D1FD5221BF
:103F00004FF2020001F0CCFD08214FF2030001F056
:103F1000C7FD00214FF2040001F0C2FDCC214FF497
:103F2000314001F0BDFD00214BF2011001F0B8FD60
:103F300005214FF4364001F0B3FD70214FF43740B6
:103F400001F0AEFD70214BF2017001F0A9FD0121DD
:103F50004FF4384001F0A4FD03214BF6010001F0BD
:103F60009FFD03214BF6020001F09AFD03214BF661
:103F7000030001F095FD02214FF43C4001F090FD5B
:103F800000214BF6014001F08BFD00214BF6024071
:103F900001F086FDD0214FF4494001F081FD02215E
:103FA0004CF6011001F07CFD50214CF6021001F09E
:103FB00077FD50214CF6031001F072FD50214CF6B4
:103FC000041001F06DFD00214FF4545001F068FD24
:103FD00055214FF4685001F063FD4FF4885001F013
:103FE0004FFD782002F062FD4FF4245001F048FDAF
:103FF00001F05EB9FE48808849F2253188427DD1C2
:1040000047F6F001E52001F04BFD4FF480710120EF
:1040100001F046FD4FF4E061022001F041FD41F264
:104020003001032001F03CFD0021042001F038FDA7
:1040300040F20221082001F033FD0021092001F0A7
:104040002FFD00210A2001F02BFD00210C2001F0A2
:1040500027FD00210D2001F023FD00210F2001F09C
:104060001FFD0021102001F01BFD0721112001F090
:1040700017FD0021122001F013FD0021132001F093
:104080000FFD0021072001F00BFD41F2906110208F
:1040900001F006FD40F22721112001F001FD9D21D4
:1040A000122001F0FDFC4FF4C851132001F0F8FC80
:1040B0002521292001F0F4FC0D212B2001F0F0FC3A
:1040C0000721302001F0ECFC40F20331312001F0F7
:1040D000E7FC0321322001F0E3FC40F20621352009
:1040E00001F0DEFC0821362001F0DAFC40F2064146
:1040F000372001F0D5FC4FF4417100E058E0382042
:1041000001F0CEFC0721392001F0CAFC40F2026127
:104110003C2001F0C5FC08213D2001F0C1FC00213C
:10412000502001F0BDFCEF21512001F0B9FC00212D
:10413000522001F0B5FC40F23F11532001F0B0FCD9
:104140004FF42741602001F0ABFC0121612001F018
:10415000A7FC00216A2001F0A3FC0021802001F0CF
:104160009FFC0021812001F09BFC0021822001F0B6
:1041700097FC0021832001F093FC0021842001F0B2
:104180008FFC0021852001F08BFC1021902001F094
:1041900087FC4FF4C061922001F082FC40F23311A1
:1041A000072001F07DFC2221002001F079FC1FE7AF
:1041B0008F48808849F2283188427DD141F28F01B1
:1041C000EC2001F06DFC41F23421EF2001F068FC9D
:1041D0004FF48071012001F063FC4FF4E061022094
:1041E00001F05EFC41F23001032001F059FC002196
:1041F000042001F055FC40F20221082001F050FC9F
:104200000021092001F04CFC00210A2001F048FCAB
:1042100001210C2001F044FC00210D2001F040FCA4
:1042200000210F2001F03CFC0021102001F038FC9F
:104230000721112001F034FC0021122001F030FC94
:104240000021132001F02CFC0121072001F028FCA3
:10425000322002F005FC41F29041102001F020FCD8
:1042600040F22721112001F01BFC322002F0F8FB64
:104270008A21122001F014FC322002F0F1FB4FF4ED
:10428000D051132001F00CFC0621292001F008FC7C
:104290000D212B2001F004FC322002F0E1FB002173
:1042A000202001F0FDFB0021212001F0F9FB32204C
:1042B00002F0D6FB002100E075E0302001F0F0FBB9
:1042C00040F20461312001F0EBFB40F20531322075
:1042D00001F0E6FB0021352001F0E2FB40F6094148
:1042E000362001F0DDFB4FF40171372001F0D8FBDF
:1042F00040F20131382001F0D3FB40F20771392040
:1043000001F0CEFB00213C2001F0CAFB40F60A215F
:104310003D2001F0C5FB322002F0A2FB002150201D
:1043200001F0BEFBEF21512001F0BAFB0021522029
:1043300001F0B6FB40F23F11532001F0B1FB4FF406
:104340002741602001F0ACFB0121612001F0A8FBB6
:1043500000216A2001F0A4FB0021802001F0A0FBD5
:104360000021812001F09CFB0021822001F098FBBC
:104370000021832001F094FB0021842001F090FBB8
:104380000021852001F08CFB1021902001F088FB9A
:104390004FF4C061922001F083FB40F233110720FB
:1043A00001F07EFB24E61248808849F220318842E1
:1043B0007ED10021084601F073FB4FF4807101208B
:1043C00001F06EFB4FF4E061022001F069FB41F265
:1043D0003001032001F064FB0021042001F060FBA8
:1043E00040F20221082001F05BFB0021092001E0DE
:1043F0008001002001F054FB00210A2001F050FB55
:1044000001210C2001F04CFB00210D2001F048FBA4
:1044100000210F2001F044FB322002F021FB40F28A
:104420000111072001F03CFB322002F019FB4FF490
:104430008651102001F034FB0721112001F030FBE0
:104440004FF48871122001F02BFB4FF430611320E0
:1044500001F026FB0021292001F022FB44F210018B
:104460002B2001F01DFB0021502001F019FBEF2152
:10447000512001F015FB0021522001F011FB40F208
:104480003F11532001F00CFB4FF41C51602001F050
:1044900007FB0121612001F003FB00216A2001F0EC
:1044A000FFFA0021802001F0FBFA0021812000E0CA
:1044B00030E001F0F5FA0021822001F0F1FA00214C
:1044C000832001F0EDFA0021842001F0E9FA0021B7
:1044D000852001F0E5FA1021902001F0E1FA002199
:1044E000922001F0DDFA0121932001F0D9FA4FF476
:1044F0008871952001F0D4FA0021972001F0D0FABC
:104500000021982001F0CCFA40F27311072001F04D
:10451000C7FA6DE5FE48808849F2313188427DD185
:1045200041F21401E72001F0BBFA4FF48071012041
:1045300001F0B6FA4FF40071022001F0B1FA41F235
:104540003801032001F0ACFA40F20221082001F00A
:10455000A7FA0021092001F0A3FA00210A2001F0A6
:104560009FFA00210C2001F09BFA00210D2001F0A0
:1045700097FA00210F2001F093FA0021102001F09A
:104580008FFA0721112001F08BFA0021122001F08F
:1045900087FA0021132001F083FAC82002F060FAA4
:1045A00041F29061102001F07BFA40F227211120A6
:1045B00001F076FA322002F053FA0C21122001F0B9
:1045C0006FFA322002F04CFA4FF40061132001F030
:1045D00067FA1121292001F063FA0B212B2001F049
:1045E0005FFA322002F03CFA0021202001F058FA54
:1045F00040F23F11212001F053FA0021302001F058
:104600004FFA4FF48371312001F04AFA0021322031
:1046100001F046FA4FF40171352000E064E001F04A
:104620003FFA41F20A61362001F03AFA40F207718E
:10463000372001F035FA4FF48371382001F030FA59
:1046400040F20771392001F02BFA40F202413C2080
:1046500001F026FA40F60F413D2001F021FA002139
:10466000502001F01DFAEF21512001F019FA00212C
:10467000522001F015FA40F23F11532001F010FAD8
:104680004FF41C51602001F00BFA0121612001F070
:1046900007FA00216A2001F003FA0021802001F0CE
:1046A000FFF90021812001F0FBF90021822001F0B7
:1046B000F7F90021832001F0F3F90021842001F0B3
:1046C000EFF90021852001F0EBF91021902001F095
:1046D000E7F94FF4C061922001F0E2F940F23311A2
:1046E000072001F0DDF983E48948808845F208411C
:1046F00088427DD14FF48071012001F0D1F94FF44F
:10470000E061022001F0CCF941F23001032001F018
:10471000C7F90021042001F0C3F940F20721082065
:1047200001F0BEF90021092001F0BAF900210A20A8
:1047300001F0B6F900210C2001F0B2F900210D20A2
:1047400001F0AEF900210F2001F0AAF9142002F0C7
:1047500087F941F2B061102001F0A2F90121112086
:1047600001F09EF90121172001F09AF94FF49C7194
:10477000122001F095F94FF40061132001F090F937
:104780000921292001F08CF909212A2001F088F95A
:104790000021A42001F084F90021502001F080F9CB
:1047A000EF21512001F07CF90021522001F078F92D
:1047B00040F23F11532001F073F94FF41C51602077
:1047C00001F06EF90121612001F06AF900216A20EF
:1047D00001F066F90021802001F062F900218120BA
:1047E00001F05EF90021822001F05AF9002100E079
:1047F00024E0832001F054F90021842001F050F9D5
:104800000021852001F04CF91321902001F048F996
:104810000021922001F044F90321932001F040F996
:104820004FF48871952001F03BF940F27311072095
:1048300001F036F9322002F013F9B8E434488088E8
:1048400041F2055188427DD10021072001F028F96D
:10485000322002F005F94FF48E71122001F020F998
:104860000121A42001F01CF90F21082001F018F902
:1048700008210A2001F014F908210D2001F010F997
:1048800040F20771302001F00BF90721312001F0CF
:1048900007F940F20361322001F002F94FF4E061C0
:1048A000332001F0FDF840F20221342001F0F8F845
:1048B0000221352001F0F4F841F60F71362001F0A5
:1048C000EFF840F20771372001F0EAF800213820B4
:1048D00001F0E6F80021392001F0E2F840F207711A
:1048E0003A2001F0DDF800213B2001F0D9F8072142
:1048F0003C2001F0D5F800213D2001F0D1F8322014
:1049000002F0AEF80121072001F0CAF8012101E010
:1049100080010020172001F0C3F8322002F0A0F837
:104920004FF4BD51102001F0BBF840F217211120C7
:1049300001F0B6F84FF48F71122001F0B1F84FF486
:10494000706100E098E0132001F0AAF800212A200D
:1049500001F0A6F80A21292001F0A2F84FF49F7176
:10496000122001F09DF80021502001F099F8EF216C
:10497000512001F095F80021522001F091F840F209
:104980003F11532001F08CF84FF41C51602001F0CE
:1049900087F80121612001F083F800216A2001F0ED
:1049A0007FF80021802001F07BF80021812001F0B8
:1049B00077F80021822001F073F80021832001F0B4
:1049C0006FF80021842001F06BF80021852001F0B0
:1049D00067F81321902001F063F84FF440719220A2
:1049E00001F05EF80521932001F05AF8002195208E
:1049F00001F056F80021972001F052F8002198208C
:104A000001F04EF84FF48071012001F049F84FF4A5
:104A1000E061022001F044F841F23801032001F086
:104A20003FF80021042001F03BF800210C2001F0A8
:104A300037F800210F2001F033F80021202001F089
:104A40002FF80021212001F02BF82121072001F06F
:104A500027F8142002F004F86121072001F020F863
:104A6000142001F0FDFF40F27311072001F018F847
:104A7000142001F0F5FF95E4FE4880884BF20551C3
:104A800088427CD10021084601F00AF8002108463E
:104A900001F006F80021084601F002F8002108465E
:104AA00000F0FEFF0121A42000F0FAFF142001F025
:104AB000D7FF4FF41C51602000F0F2FF40F20221BA
:104AC000082000F0EDFF4FF40571302000F0E8FF02
:104AD00043F21571312000F0E3FF40F2046132200F
:104AE00000F0DEFF40F61661332000F0D9FF42F2FD
:104AF0001121342000F0D4FF4FF4A851352000F0EC
:104B0000CFFF48F20751362000F0CAFF41F20741BB
:104B1000372000F0C5FF41F20341382000F0C0FF0C
:104B20002021392000F0BCFF1A21902000F0B8FFAE
:104B30000021102000F0B4FF0721112000F0B0FF89
:104B40000021122000F0ACFF0021132000F0A8FF8C
:104B5000142001F085FF4FF4E661102000F0A0FF63
:104B600040F23711112000F09BFF142001F078FF74
:104B70004FF4DC71122000F093FF142000E085E078
:104B800001F06EFF4FF47061132000F089FF802167
:104B90002A2000F085FF4821292000F081FF142001
:104BA00001F05EFF4FF48071012000F079FF4FF4B7
:104BB000E061022000F074FF41F23801032000F0B0
:104BC0006FFF40F20221082000F06AFF00210A2056
:104BD00000F066FF00210C2000F062FF00210D2094
:104BE00000F05EFF30210E2000F05AFF002150201F
:104BF00000F056FFEF21512000F052FF002152201B
:104C000000F04EFF40F23F11532000F049FF4FF4F7
:104C10001C51602000F044FF0121612000F040FFA2
:104C200000216A2000F03CFF1121902000F038FFA5
:104C30004FF4C061922000F033FF40F20241932014
:104C400000F02EFF0221942000F02AFF142001F032
:104C500007FF0121072000F023FF142001F000FFCF
:104C60006121072000F01CFF40F27311072000F0C3
:104C700017FF0021202000F013FF0021212000F069
:104C80000FFF2221002000F00BFF11E379488088FC
:104C90004CF2055188427CD10021084600F000FF0B
:104CA0000021084600F0FCFE142001F0D9FE00218E
:104CB000084600F0F5FE0021084600F0F1FE002154
:104CC000084600F0EDFE0021084600F0E9FE012153
:104CD000A42000F0E5FE142001F0C2FE4FF41C51A8
:104CE000602000F0DDFE40F60601082000F0D8FE4E
:104CF00040F20371302000F0D3FE0121312000F09A
:104D0000CFFE0421322000F0CBFE4FF4817133201E
:104D100000F0C6FE4FF44071342000F0C1FE40F2B6
:104D20000311352000F0BCFE1F21362000F0B8FE34
:104D300040F20371372000F0B3FE0121382000F06B
:104D4000AFFE0421392000F0ABFE1521902000F0C9
:104D5000A7FE4FF48261102000F0A2FE40F247212E
:104D6000112000F09DFE4FF4DE71122000F098FE3D
:104D70004FF46061132000F093FE782001F070FE84
:104D80004FF48071012000F08BFE4FF4007102207F
:104D900000E052E000F084FE41F23001032000F018
:104DA0007FFE08210A2000F07BFE00210C2000F08D
:104DB00077FE20210E2000F073FE00210F2000F06E
:104DC0006FFE0021202000F06BFE0021212000F06A
:104DD00067FE3D212A2000F063FE142001F040FE12
:104DE0002D21292000F05CFE0021502000F058FE0B
:104DF0004DF2EF01512000F053FE0021522000F04F
:104E00004FFE40F23F11532000F04AFE0021612086
:104E100000F046FE00216A2000F042FE4FF440718F
:104E2000922000F03DFE0521932000F039FE4FF462
:104E30008071072000F034FE3AE20E48808844F288
:104E4000315188427ED10121002000F029FE0A2044
:104E500001F006FE41F22861102000F021FE0E2133
:104E6000122000F01DFE40F63921132000F018FE3C
:104E70000A2001E08001002001F0F2FD4021112014
:104E800000F00EFE5021152000F00AFE0A2001F06D
:104E9000E7FD1E21122000F003FE0A2001F0E0FDD4
:104EA0004FF4B151102000F0FBFD42F639211320E0
:104EB00000F0F6FD0A2001F0D3FD4FF480710120CF
:104EC00000F0EEFD4FF44071022000F0E9FD41F2E8
:104ED0003801032000F0E4FD40F20221082000F038
:104EE000DFFD08210A2000F0DBFD0021302000F06A
:104EF000D7FD40F20241312000F0D2FD4FF4837122
:104F0000322000F0CDFD40F20351332000F0C8FD07
:104F10004FF48271342000F0C3FD40F2013135209E
:104F200000F0BEFD40F20771362000F0B9FD40F2FE
:104F30000531372000F0B4FD4FF40271382000F045
:104F4000AFFD00E03EE040F60B71392000F0A8FD17
:104F50000221412000F0A4FD4FF41C51602000F01C
:104F60009FFD0121612000F09BFD4FF40471902012
:104F700000F096FD4FF48571922000F091FD042120
:104F8000932000F08DFD4FF48071A02000F088FD8B
:104F90000121072000F084FD2121072000F080FD81
:104FA0002321072000F07CFD3321072000F078FD4D
:104FB00040F23311072000F073FD0021A02000F023
:104FC0006FFD75E1BF48808844F2355188427CD13D
:104FD0003021152000F064FD10219A2000F060FDC2
:104FE0002021112000F05CFD43F22841102000F048
:104FF00057FD0221122000F053FD41F23801132029
:1050000000F04EFD282001F02BFD1221084600F093
:1050100047FD282001F024FD43F22041102000F03C
:105020003FFD43F23801132000F03AFD462001F025
:1050300017FD0021302000F033FD40F20241312005
:1050400000F02EFD40F20731322000F029FD4FF430
:105050004171332000F024FD0421342000F020FDB4
:1050600040F20141352000F01BFD40F2077136206F
:1050700000F016FD40F20531372000F011FD4FF42D
:10508000C261382000F00CFD4FF4C261392000F0FD
:1050900007FD4FF48071012000F002FD4FF44071D4
:1050A000022000F0FDFC41F23001032000F0F8FC8A
:1050B00040F60801082000F0F3FC08210A2000F067
:1050C000EFFC4FF41C51602000E033E000F0E8FCFE
:1050D0000121612000F0E4FC4FF49F71902000F06A
:1050E000DFFC4FF48071922000F0DAFC4FF4807105
:1050F000932000F0D5FC4FF44051A02000F0D0FCEC
:105100001021A32000F0CCFC0121072000F0C8FCF6
:105110002121072000F0C4FC2321072000F0C0FC5F
:105120003321072000F0BCFC40F23311072000F0CF
:10513000B7FCBDE06348808841F663118842F8D12E
:10514000E22000F09DFC1D2000F094FC022000F005
:1051500091FC042000F08EFC642001F0A7FCE0200C
:1051600000F08EFC012000F085FC0A2001F078FCA4
:10517000E02000F085FC032000F07CFC0C2001F016
:105180006FFC012000F07CFC0A2001F069FCE620A5
:1051900000F076FC2F2000F06DFCFF2000F06AFC90
:1051A000FF2000F067FCB02000F06AFC202000F037
:1051B00061FC002000F05EFC032000F05BFC40F28C
:1051C0001F3000F057FC012000F054FC40F2DF10CB
:1051D00000F050FC002000F04DFCB42000F050FC2A
:1051E000042000F047FC40F21F4000F043FC002088
:1051F00000F040FC2E2000F03DFC002000F03AFCC6
:10520000002000F037FC002000F034FC002000F00B
:1052100031FCB62000F034FC022000F02BFC4FF4EF
:10522000037000F027FC002000F024FC172000F0A1
:1052300021FC152000F01EFC002000F01BFC0020CB
:1052400000F018FCF02000F01BFC032000F012FC22
:10525000292000F015FCD02000F012FC002000F006
:1052600009FCBE2000F00CFC052000F003FCFE2031
:1052700000F000FC012000F0FDFB002000F0FAFB34
:10528000002000F0F7FB002000F0F4FBB82000F055
:10529000F7FB032000F0EEFB012000F0EBFBBA204F
:1052A00000F0EEFB012000F0E5FB642000F022F8A6
:1052B0000120FCF777F94FF6FF70FCF73DF91FB0BE
:1052C00000BD00008001002010B50246012000E072
:1052D00050430B1EA1F10104E1B2F9D110BD000051
:1052E00008B5034800880090BDF8000008BD000024
:1052F0000008006C2DE9F0470446BE2000F0C0FB1A
:10530000052000F0B7FB204603F0A9FA07464FF04E
:1053100066320C4B03F0B6FA054603F073FA1FFA37
:1053200080F9484600F0A6FB012000F0A3FBFF2017
:1053300000F0A0FB002000F09DFB002000F09AFB95
:10534000BDE8F0876666044070B504460023002679
:10535000BA48807901280BD1B848808846F6040104
:10536000884205D0B548808841F66311884208D14B
:10537000B2488079F0B9B148808841F6631188421B
:1053800018D1082C15D2DFE804F00406080A0C0E28
:10539000101206240DE007240BE0042409E0052484
:1053A00007E0012405E0002403E0032401E00224D7
:1053B00000BF00BFA148808849F2413188421DD01A
:1053C0009E48808846F60401884217D09B48808812
:1053D00045F21031884211D09848808845F210512A
:1053E00088420BD09548808841F66311884205D0E9
:1053F0009248808849F2884188427DD1082C1CD28D
:10540000DFE804F00406090C0F12151800BF14E0C1
:1054100043F0800311E043F040030EE043F0C0038B
:105420000BE043F0200308E043F0600305E043F0A5
:10543000A00302E043F0E00300BF00BF7F48808884
:1054400045F21051884202D14FF4585600E03626FA
:105450007A48808845F2103188420DD0774880889C
:1054600045F21051884207D07448808841F6631194
:10547000884201D043F008037048808846F6040152
:10548000884201D143F002031946304600F008FB80
:105490006A48808841F6631188421DD003F02000DD
:1054A00068B16648008865494988884214DA6348CB
:1054B0000588408861490880084645800CE05F48BF
:1054C00000885E494988884206DD5C480588408836
:1054D0005A490880084645805848808845F210514E
:1054E000884254D15549488900F0CAFA002000F09A
:1054F000C1FA5249498900E078E0491C88B200F0BD
:10550000BFFA002000F0B6FA4C494989891C88B2DC
:1055100000F0B6FA49490988491EC1F30F2000F08E
:10552000A9FA46494989C91C88B200F0A9FA434939
:105530000978491EC8B200F09DFA4049888900F0F8
:105540009FFA002000F096FA3C498989491C88B2EC
:1055500000F096FA002000F08DFA38498989891CFC
:1055600088B200F08DFA35494988491EC1F30F20F1
:1055700000F080FA31498989C91C88B200F080FAAC
:105580002E498978491EC8B200F074FA55E02B49BB
:10559000488900F075FA002000F06CFA002000F055
:1055A00069FA26490988491EC1F30F2000F062FA02
:1055B00022490978491EC8B200F05CFA1F4988895F
:1055C00000F05EFA002000F055FA002000F052FAD8
:1055D0001A494988491EC1F30F2000F04BFA1749B8
:1055E0008978491EC8B200F045FA26E0082C1CD282
:1055F000DFE804F004070A0D0F12151843F030031A
:1056000013E043F0100310E043F020030DE000BF6F
:105610000BE043F0380308E043F0280305E043F0D3
:10562000180302E043F0080300BF00BF032643F461
:1056300080531946304600F033FA70BD80010020D7
:1056400010B503460C468148808849F241318842B2
:1056500005D07E48808845F21031884214D17B49BC
:10566000488900F00DFA181200F004FAD8B200F0E0
:1056700001FA7649888900F003FA201200F0FAF95D
:10568000E0B200F0F7F9E0E07048808846F60401E7
:1056900088421DD16D488079012804D16B4800886B
:1056A000401EC01A83B26949488900F0E9F918120E
:1056B00000F0E0F9D8B200F0DDF96449888900F023
:1056C000DFF9201200F0D6F9E0B200F0D3F9BCE027
:1056D0005E48808841F66311884247D15B488079F3
:1056E000A8B95A480088401EC01A83B25749488951
:1056F00000F0C6F9002000F0BDF9002000F0BAF972
:10570000181200F0B7F9D8B200F0B4F916E04F491A
:10571000488900F0B5F9181200F0ACF9D8B200F0E1
:10572000A9F94A490988491EC1F30F2000F0A2F9DE
:1057300046490978491EC8B200F09CF94349888956
:1057400000F09EF9201200F095F9E0B200F092F915
:105750003E494988491EC1F30F2000F08BF93B49AF
:105760008978491EC8B200F085F96EE03748808814
:1057700045F21051884220D13449488900F080F91F
:10578000181200F077F931494989491C88B200F0B4
:1057900077F9D8B200F06EF92C49888900F070F9D9
:1057A000201200F067F929498989491C88B200F064
:1057B00067F9E0B200F05EF947E02448808849F2DA
:1057C000884188422ED12149488900F059F91812A0
:1057D00000F050F9D8B200F04DF91C490988491E73
:1057E000C1F30F2000F046F918490978491EC8B2E4
:1057F00000F040F91549888900F042F9201200F0C4
:1058000039F9E0B200F036F910494988491EC1F370
:105810000F2000F02FF90D498978491EC8B200F019
:1058200029F912E009488079012804D10748008845
:10583000401EC01A83B205494889194600F030F964
:1058400002498889214600F02BF910BD8001002013
:105850002DE9F84F80460E4617461C46B3462046B3
:10586000E31704EB5373DB1021464FEAE47C04EBAF
:105870005C7C4FEAEC0CA4EBCC0CBCF1000F02D02A
:105880004FF0010C01E04FF0000C6344224604EBA2
:10589000D27C4FEA6C0C03FB0CF3DBB20093A7F154
:1058A0002000C7B2002556E00C2C07D107EB4700BB
:1058B0002B4901EB800010F8059013E0102C05D166
:1058C000284800EB071010F805900BE0182C07D1C2
:1058D00007EBC700244901EB800010F8059001E0B8
:1058E000BDE8F88F4FF0000A2FE009F0800030B1DA
:1058F0001E48028831464046FBF754FF07E00A98ED
:1059000028B91B48028831464046FBF74BFF4FEA57
:1059100049604FEA1069701C86B216484088B04250
:1059200000DCDDE7A6EB0B00A0420AD15E4608F1E1
:1059300001001FFA80F80F480088404500DCCFE7DF
:1059400006E00AF1010000F0FF0ABAF1080FCCDB13
:1059500000BF681CC5B200988542A5DB00BFBFE749
:10596000808A0008F48E0008E494000800000020FB
:1059700002000020800100202DE9FF4F81B0074682
:1059800091461E460E9D4FF0000A002439E0301B60
:10599000401EC1B20A20FFF797FCB9FBF0F00A21C4
:1059A000B0FBF1F201FB1208BAF1000F16D1701E24
:1059B000A04213DDB8F1000F0ED10020AB4605EB7D
:1059C000DB71491001FB0471009088B22B46202244
:1059D0000299FFF73DFF12E04FF0010A0020AB46AD
:1059E00005EBDB71491001FB0471009088B208F1EE
:1059F0003001CAB22B460299FFF72AFF00BF601C94
:105A0000C4B2B442C3DB05B0BDE8F08F2DE9F8475E
:105A100004460D4690469946DDE9096704F0FF0A01
:105A200008EB04001FFA80F809EB05001FFA80F963
:105A300016E0444502DB5446A81985B24D4500DB0B
:105A400014E0002000903A78334629462046FFF7BC
:105A5000FFFE304606EBD07104EB61018CB27F1C77
:105A600038787E2802DC38782028E2DA00BFBDE8EA
:105A7000F887000001490880704700000008006CAA
:105A80000149088070470000FE07006C0248008949
:105A9000024908807047000080010020FE07006C6A
:105AA000024A1080921C118070470000FE07006CB3
:105AB00008B50121042000F095F80121084600F006
:105AC00091F801210848FBF773FC4FF40040ADF852
:105AD000000010208DF8030003208DF802006946B5
